:020000041000EA
:1000000000B5324B212058609868022188439860DF
:10001000D860186158612E4B002199600221596106
:100020000121F02299502B49196001219960352056
:1000300000F044F80222904214D00621196600F024
:1000400034F8196E01211966002018661A6600F04E
:100050002CF8196E196E196E052000F02FF8012189
:100060000842F9D1002199601B49196000215960AB
:100070001A491B48016001219960EB211966A021F2
:10008000196600F012F800219960164914480160C1
:100090000121996001BC002800D000471248134993
:1000A000086003C880F30888084703B5996A0420EC
:1000B0000142FBD001200142F8D103BD02B5186610
:1000C0001866FFF7F2FF186E186E02BD00000240BE
:1000D000000000180000070000035F00212200005C
:1000E000F4000018222000A00001001008ED00E03C
:1000F00000000000000000000000000074B24E7A12
:1001000000200420F7010010C3010010C5010010F9
:10011000C1010010C1010010C1010010C101001097
:10012000C1010010C1010010C1010010C701001081
:10013000C1010010C1010010C9010010CB01001065
:10014000CD010010CD010010CD010010CD01001037
:10015000CD010010CD010010CD010010CD01001027
:10016000CD010010CD010010CD010010CD01001017
:10017000CD010010CD010010CD010010CD01001007
:10018000CD010010CD010010CD010010CD010010F7
:10019000CD010010CD010010CD010010CD010010E7
:1001A000CD010010CD010010CD010010CD010010D7
:1001B000CD010010CD010010CD010010CD010010C7
:1001C00000BE00BE00BE00BE00BE00BEEFF3058054
:1001D000103800BEF2EB8871E4EE06100CEF06104A
:1001E0003402001090A31AE700201F49086006C8D7
:1001F00081F3088810471D48006800282FD10DA4FE
:100200000ECC002902D000F012F8F9E71849194A7B
:10021000002000E001C19142FCD1174988471749ED
:1002200088471749884700BEFDE701C901C29A42C5
:10023000FBD370470CEF0610C0000020801900208F
:10024000EC0707100000042000000420EC07071052
:10025000001004200010042000000000704709482E
:1002600002F07CFC0047000008ED00E0000000D038
:10027000A0190020F4F600208D660110510900102D
:10028000B56701105756000006005250ABB36053DB
:1002900080BE061006005250861C030290BE061057
:1002A000060052505422A29DA4BE061005005250D2
:1002B000DE65F468EC070710F8B5C04610B5064CCB
:1002C0002378002B07D1054B002B02D0044800E017
:1002D00000BF0123237010BDF01B002000000000B0
:1002E00088F70210044B10B5002B03D003490448D3
:1002F00000E000BF10BDC04600000000F41B00205D
:1003000088F7021000B50168244B83B099422DD0C4
:100310000ED8234B99422FD0224B994214D1836897
:100320004268C0680090204818F0E4FB03B000BDAC
:100330001E4B994226D01E4B99420ED183684268CB
:100340001C4818F0D7FBF1E71B4B994220D183687A
:1003500042681A4818F0CEFBE8E7194B994217D1CA
:1003600083684268174818F0C5FBDFE78368426876
:10037000154818F0BFFBD9E783684268134818F0A6
:10038000B9FBD3E783684268114818F0B3FBCDE7A7
:10039000836842680F4818F0ADFBC7E741555448E1
:1003A000434C534557525445C0F70210434E584EE4
:1003B0004F4B415988F7021053594E4304F802102D
:1003C0004F50454E20F802103CF80210A4F70210DE
:1003D000E8F7021058F8021000B5084883B018F08A
:1003E000E7FA074B0022D978064B187800230093D0
:1003F000054B01F0C7FB03B000BDC04674F8021006
:1004000068450020E8F600206D05001010B501F0E9
:10041000BBF8002803D0074818F0CAFA10BD0648F8
:1004200018F0C6FA054B06480022C45804210023E0
:10043000A047F3E788F80210D0F802101404000077
:100440004441002010B501F09FF800280DD00C4861
:1004500018F0AEFA04220B480B4B0221C2540B4B8E
:100460000022C4580023A04710BD094818F0A0FA84
:10047000064B04480022C45804210023A047F3E798
:1004800004F9021044410020050400001404000097
:1004900024F9021010B501F077F800280CD00848B4
:1004A00018F086FA074B084AD978084B1878A02329
:1004B000DB0001F0A3FB10BD054818F079FAFAE75C
:1004C0004CF902106845002044410020E8F6002065
:1004D0008CF9021010B5040001F056F8002807D07E
:1004E000094818F065FA2000084900F0EDFF10BD3A
:1004F000074818F0FFFA074B07480022C4580421A8
:100500000023A047F3E7C046A8F902100D1600101B
:10051000CCF90210140400004441002010B504007E
:1005200001F032F800280AD00A4818F041FA0223F4
:100530002000094A0949FF3301F0C0F910BD0848FD
:1005400018F036FA074B08480022C458042100234B
:10055000A047F3E74CFA0210704600200D0400108B
:1005600020FA0210140400004441002000B585B0B8
:1005700001F00AF8002801D105B000BD0A4818F0C2
:1005800017FA0A4B0A4A19790A4B18780A4B029350
:100590000A4B1B68019380235B01009380235B045B
:1005A00001F0A4F9E8E7C04670FA0210684500209F
:1005B000434E584EE8F60020390800104441002010
:1005C00010B5040000F0E0FF002807D0094818F03B
:1005D000EFF92000084900F077FF10BD074818F038
:1005E000E7F9074B07480022C45804210023A0471D
:1005F000F3E7C04688FA02100D16001020FA021028
:10060000140400004441002010B584B000F0BCFF89
:10061000002812D00E4818F0CBF90E4B0E4A19796B
:100620000E4B18780E4B02930E4B01930023009350
:10063000013301F05BF904B010BD0B4818F05AFA11
:100640000A4B0B480022C45804210023A047F2E7BC
:10065000A4FA0210684500204F50454EE8F60020ED
:10066000F1070010C4FA021040FB0210140400004D
:100670004441002010B584B000F086FF002812D05D
:100680000E4818F095F90E4B0E4A19790E4B187852
:100690000E4B02930E4B019300230093013301F0A4
:1006A00025F904B010BD0B4818F024FA0A4B0B488A
:1006B0000022C45804210023A047F2E770FB021077
:1006C000684500204F50454EE8F60020D504001044
:1006D00094FB0210A0FB021014040000444100200F
:1006E00010B584B000F050FF002812D00E4818F06A
:1006F0005FF90E4B0E4A19790E4B18780E4B029388
:100700000E4B019300230093013301F0EFF804B086
:1007100010BD0B4818F0EEF90A4B0B480022C458E4
:1007200004210023A047F2E7C4FB02106845002023
:100730004F50454EE8F60020C9080010E0FB0210BB
:1007400040FB0210140400004441002070B51D4D10
:1007500084B001002B001C4A02A801F029FC0222EF
:100760001A4B02A8EA5400F007FF041E01D004B09F
:1007700070BD1B21164818F0BDF9D02380221B063E
:1007800012055A61134E029BFA2033606B461B7BA5
:100790008000337103F066FA0F4818F009F90F482A
:1007A00018F006F903220E4B0E48EA5418F000F92F
:1007B0000D4B3179187800220C4B009401F0E2F9CE
:1007C000D5E7C04644410020603A002005040000FF
:1007D00040FC0210684500204CFC021068FC02102E
:1007E00004040000E8FC0210E8F60020D903001021
:1007F00010B5040000F0C8FE002807D0094818F022
:10080000D7F82000084900F05FFE10BD074818F037
:1008100071F9074B07480022C45804210023A04760
:10082000F3E7C046F8F90210E106001020FA0210C2
:10083000140400004441002010B5040000F0A4FEA0
:10084000002807D0094818F0B3F82000084900F044
:100850003BFE10BD074818F04DF9074B0748002232
:10086000C45804210023A047F3E7C04600FD02104E
:100870004504001020FA0210140400004441002036
:1008800010B5040000F080FE002807D0094818F0D9
:100890008FF82000084900F017FE10BD074818F037
:1008A00029F9074B07480022C45804210023A04718
:1008B000F3E7C04624FD02100906001020FA0210DA
:1008C000140400004441002010B5040000F05CFE58
:1008D000002807D0094818F06BF82000084900F0FC
:1008E000F3FD10BD074818F005F9074B0748002233
:1008F000C45804210023A047F3E7C046F8F90210CA
:100900007506001020FA0210140400004441002073
:1009100010B518F085FA00201AF05AFA15F0DCFD2F
:10092000084C200000F066FB0748210000F050FD55
:10093000064818F03DF80120002140421AF0E2FA82
:10094000F9E7C046444100206845002050FD0210F0
:100950000321F0B5334A344B83B0D1541BF0F0FA85
:1009600018F0D4F80FF074FD00283FD1D024802572
:100970000FF002FD012100200FF05AFD2406162081
:10098000ED0302F035FB15206562A56102F030FB36
:1009900080239B0363621B20A36102F029FB802359
:1009A0001B0563621C20A36102F022FB80231F4F02
:1009B0001F4E5B0563623A003100A3611D4818F0C9
:1009C00099F8390030001C4B1C4A0FF0E3FC00285A
:1009D00010D016211A4818F08DF83A003100194845
:1009E000A56118F087F8012003B0F0BD164817F094
:1009F000DFFFF8E7154817F0DBFF1621144818F061
:100A000079F8FF21134A144B6561D058030C020A90
:100A10000B400A400140000E0090104818F06AF8A0
:100A2000FFF776FF444100200504000034FB02106C
:100A300084FD021094FD0210307500000400400097
:100A4000B4FD0210C0FD02106CFD0210E8FD0210A2
:100A500040FC02108C300020DC080000F4FD021085
:100A6000F0B5C64600B5804686B01D480F0018F0A8
:100A700041F81C4818F03EF8002F09D044461A4DA2
:100A8000E61921782800013418F034F8A642F8D18C
:100A90000A2017F041FF154B154C1A6805AB3900B9
:100AA00000934046230000F0EFFD011E13D1114BCF
:100AB000114A1D79114B1878114B009103930223B1
:100AC000FF33029329000194FF3B01F00FF806B0B9
:100AD00080BCB846F0BD0B4818F00CF8F7E7C046EC
:100AE000C8FE0210FCFE021004FF0210C80F002016
:100AF000704600206845002041555448E8F6002023
:100B00001D0500100CFF0210F0B54546DE464E46AE
:100B10005746E0B50600BE4CBE488DB0884615006D
:100B200017F046FF335D062B00D1BEE034D8042B0E
:100B300000D1ABE0052B00D09FE0B74817F038FF9D
:100B4000B64B01249B461A000F239A46B44B2978D2
:100B50009946B44F380017F0CDFF142C0BD05346F4
:100B6000295D01344A462342F4D05A46380017F032
:100B7000C1FF142CF3D10423A54FF355AA4B1C78C5
:100B8000002C00D0D2E0A94803F06CF841462800C0
:100B9000FFF766FF013471E0072B6ED14346182B37
:100BA00000D1D9E04146A248474617F0A3FFA1482B
:100BB00017F0FEFEFB239B00F35ABA4699464346C4
:100BC000581C17F05BFDCA44041E06D0424629009B
:100BD00017F08AFD00234246A3542100964817F0DF
:100BE00089FFFA239B009A4500DBFFE00122934B2B
:100BF000F252331D9B46FB239B00F45A002F31D049
:100C0000231DF21811009C46032329430B4059422F
:100C10004B41691C511A8A4602215145894149427A
:100C2000194200D1D3E07B1E082B00D8CFE000236F
:100C3000B9088900E858D05004338B42FAD1032216
:100C40003B0093433A420DD02000EA5C5844C25422
:100C50005A1C974206DDA95C023381549F4201DD94
:100C6000EA5CC2544946FB2341449B00F152812374
:100C7000DB00F25C002A00D093E0012420000DB0DC
:100C8000F0BCBB46B246A946A046F0BD18222900DA
:100C900006A817F029FD6A4817F08AFE06A8FFF794
:100CA00031FB052333550124E8E74346182B37D1A0
:100CB0001822290006A817F017FD069B0B9ADB43A4
:100CC00005929A4200D08BE05E4817F071FE06A8AC
:100CD000FFF718FB5C4B069A9A42CED15B4817F09F
:100CE00009FF1C215A4817F005FFD02380221B065C
:100CF00052055A610722574B57481A5517F058FEAC
:100D0000564B574A1979574B01241878564B029382
:100D1000564B019300230093013300F0E7FDADE74C
:100D20004146434817F0E6FE0124A7E7504817F074
:100D30003FFE0622474BDA55484B4E4A1979494B3C
:100D400018784D4B02934D4B1B6801930023009381
:100D5000033300F0CBFD91E71822290006A817F015
:100D6000C3FC069B0B9ADB4305929A4242D135485D
:100D700017F01EFE06A8FFF7C5FA069B404A9342ED
:100D80003ED0404A934200D077E781230122DB0026
:100D9000F254079A3C4B0024F250089A0433F25064
:100DA0006CE70022F254384B3848F4580433F558B5
:100DB00017F0FEFD294B364A19792A4B1878354B26
:100DC00000950193230000F0DDFD002456E7624604
:100DD0000023B218E95CD15401339F42FAD141E7B4
:100DE00018212D4817F086FE012447E72B4817F0FD
:100DF000DFFD3CE71821284817F07CFE1827D6E6CF
:100E0000274817F077FE0022264BF25435E7C046FC
:100E10000504000028FF021064FF0210D817031019
:100E200094BA061084FF0210D00F0020881300002F
:100E30008CFF0210300003104C000310EE03000082
:100E400040FF0210F0FF0210434E584E64FE0210A5
:100E500040FC021044410020C4FB02106845002001
:100E60004F50454EE8F60020810800102CFE02107D
:100E7000ACFE021041555448C1050010CC0F0020B3
:100E8000434C5345575254450C04000014FE0210C5
:100E90004F4B415995040010C4FF02105C00031031
:100EA000000003100704000020B51500052924D810
:100EB000134A8900525897460168124817F01AFEE3
:100EC000012020BD1A002900FFF71EFEF9E70E4899
:100ED00017F06EFD0120F4E70C4817F069FD0120C2
:100EE000EFE701680A4817F005FE0120E9E701680D
:100EF000084817F0FFFD0120E3E70120E1E7C046C5
:100F000014010310F000031080000310940003107C
:100F1000AC000310CC000310012230B5144B83B099
:100F20000400152113481A7017F0E4FDD023802225
:100F30001B0692035A61104B104A00251A60FB22CF
:100F400092009D520E490F4A0F48995004210F4AB2
:100F5000FF319952210017F0CDFD0D4B12221C706C
:100F600020000C4B0C4900951AF0E4F803B030BD9A
:100F7000E9F6002040FC0210444100202C0103103F
:100F8000A90E001014040000400103100404000026
:100F9000E8F600204D070010603A0020032170B5EC
:100FA000104A114E114B0400D1543000123117F089
:100FB000A1FDD02580232D069B03AB6130001B21B2
:100FC00017F098FD80231B05AB6130001C2117F042
:100FD00091FD80235B05AB612100054817F08AFD78
:100FE00070BDC04644410020B4FD0210050400005D
:100FF000600103102C4B10B5186017F091FE1F21F3
:101000001A2001F041FF002200211A2001F054FFB4
:101010001A20002101F0D8FFE022244BD2011B68E6
:10102000234C1340234A206813602DF06FFF0828DB
:1010300037D860682DF06AFF082832D8A0682DF0F4
:1010400065FF08282DD8E0682DF060FF082828D813
:1010500020692DF05BFF082823D860692DF056FF2A
:1010600008281ED8A0692DF051FF082819D8E0697A
:101070002DF04CFF082814D8206A2DF047FF0828CF
:101080000FD8606A2DF042FF08280AD8A06A2DF018
:101090003DFF082805D80B222100074815F04AFA21
:1010A00010BD064815F08AFB7047002000C00440C0
:1010B0003403002000D00440C1000020480E03107B
:1010C00010B5040000F060FA002809D0064817F0B7
:1010D0006FFC20006369054A054900F0EFFB10BD75
:1010E000044817F007FDFAE7F8F9021070450020F0
:1010F0000D16001020FA021000B585B000F044FA79
:1011000000281AD00F4817F053FC01210E4B1A6823
:101110000E4BD154FB210023890053520C4A126814
:10112000117910780B4A009302920B4A0133019215
:101130000A4A00F0DBFB05B000BD094817F0DAFCF5
:10114000F9E7C046780E031064450020070400004C
:1011500060450020C1100010980E03104F50454EFE
:1011600020FA021010B5040000F00EFA002807D093
:10117000054817F01DFC2000044900F0A5F910BD3A
:10118000034817F0B7FCFAE7CC0E0310F910001073
:10119000F80E031070B5010084B0194817F0AAFCCE
:1011A000184E1948310017F0A5FC0123174D184CB3
:1011B0002A68FB211355002389005352154A1268EF
:1011C00011791078144A009302920133134A019660
:1011D00000F08CFB2B681B5D002B0ED00120002142
:1011E000404219F08FFE322002F03CFD2E2017F015
:1011F00093FB2B681B5D002BF0D1094804B070BD38
:101200002C0F0310580F03108C0F0310644500209F
:101210000704000060450020651100104F50454E46
:10122000B00F0310F0B5C64600B504000E002DF057
:101230006DFE051E54D0202200239046E25C310052
:101240000120252A0BD02B2A43D00A700133421CDF
:1012500001319D423AD91000E25C252AF3D19A1C53
:10126000AA423DD2E3185E78A75C3300303BDBB284
:10127000092B08D93300413B052B33D9203B052BE3
:101280002ED8573EF3B230267642B446BC4466466A
:101290001B01F6B2B446DBB2092E1DD941267642B7
:1012A000B446BC446646052E20D961267642B44633
:1012B000BC446646052E13D8573FDB19DBB20B70D2
:1012C00013000133421C01319D42C4D880BCB84692
:1012D000F0BD42460A70B9E76344DBB2002BEED1A1
:1012E0000020F3E73300373BDBB2CCE7373FDB19B5
:1012F000DBB20B701300E4E7F0B5C64600B50100A1
:1013000084B026481E0017F0F5FB254C25492268BD
:10131000515C072903D1244D575D002F07D0234886
:1013200017F0E8FB224804B080BCB846F0BD214865
:1013300017F0E0FB204B306819009846FFF772FF6A
:10134000010006001D4817F0D5FB012223685A55FD
:10135000FB2292009F521A4B1A4A1B68197918787F
:10136000194B02960393434600970193012300F023
:10137000BDFB23685B5D002B0ED0012000214042A5
:1013800019F0C0FD322002F06DFC2E2017F0C4FAD7
:1013900023685B5D002BF0D10C48C4E7DC0F031021
:1013A00064450020050400000704000060100310DD
:1013B000C00F031004100310704500203C100310F0
:1013C000604500204F50454EC1100010B00F031073
:1013D00010B5044B1860044B04481960022115F045
:1013E000CDF810BD6045002064450020B410031006
:1013F00000B50168254B83B099422DD00ED8244BFF
:10140000994231D0234B994214D183684268C06815
:101410000090214817F06EFB03B000BD1F4B9942AE
:1014200028D01F4B99420ED1836842681D4817F09F
:1014300061FBF1E71C4B994222D1836842681B484B
:1014400017F058FBE8E71A4B994219D183684268B4
:10145000184817F04FFBDFE783684268C0680090C8
:10146000154817F047FBD7E783684268134817F021
:1014700041FBD1E783684268114817F03BFBCBE79B
:10148000836842680F4817F035FBC5E7415554485B
:10149000434C534557525445C0F70210434E584EE3
:1014A0004F4B415988F7021053594E4304F802102C
:1014B0004F50454E20F80210C4100310A4F702103C
:1014C000E8F7021058F8021070B5040082B00A481C
:1014D0000D0017F06DFA666930002DF017FD00223F
:1014E000431C1B0401926178320020781B0C00958C
:1014F00019F036FD02B070BDEC100310F8B5FC23F6
:101500004569C1789B000400EE5800291ED142783D
:101510000178124817F0EEFA114B2800EF58052118
:101520003300A288B84705000E4817F041FA002D95
:1015300010D080230C48A360E66017F0DBFA20008F
:1015400019F07EFD094817F0D5FAF8BD084817F0E4
:10155000D1FAEEE7074817F02BFAF6E7041103106B
:10156000140400000CDC0610CC110310041203104C
:10157000601103103C120310024BC01A4342584141
:10158000C0B270470C21002010B5C3780400022BB4
:1015900011D0012B17D0042B1DD0032B23D0002BEF
:1015A00004D0406917F08EF8002010BD124817F0E3
:1015B000FFF90120F9E7114817F0FAF9606917F00F
:1015C00081F80020F1E70E4817F0F2F9606917F092
:1015D00079F80020E9E70B4817F0EAF9606917F09D
:1015E00071F80020E1E7084817F0E2F9606917F0A8
:1015F00069F80020D9E7C046B8120310781203102A
:101600008812031098120310A812031010B5C378A3
:101610000400022B12D0012B17D0042B1CD0032B5B
:1016200021D0002B06D0406917F04CF8606917F004
:1016300049F810BD0F4817F0BBF9F7E70E4817F04F
:10164000B7F9606917F03EF8F0E70C4817F0B0F909
:10165000606917F037F8E9E7094817F0A9F96069F8
:1016600017F030F8E2E7074817F0A2F9606917F0C1
:1016700029F8DBE7B8120310781203108812031060
:1016800098120310A8120310F0B5DE4657464546DF
:101690004E461400E0B5D3B0002200210DAF050086
:1016A00027A8069328F0C6FF380027F01BFD20006E
:1016B0002DF02CFC00232100421C0093380028F060
:1016C00021FC041E00D0BAE024AE3300300006CF67
:1016D00006C327F03DFD012800D0D3E00FAA9346B2
:1016E000736859461A00083291CA91C108000791DF
:1016F00092CA92C00400089083CA83C42700099448
:1017000013CA13C71A003832BA4613CA13C70A9746
:1017100013CA13C70B9713CA13C732005C3313CB1A
:1017200013C2079908980191009053465946099AA7
:1017300027A828F065FE041E5AD127A828F0A2FE8B
:10174000041E00D094E0524817F032F927A828F080
:10175000C1FF041E00D086E04E4817F029F90F2380
:1017600099464D4B0124984629784C4A4C4F3800F5
:1017700017F0C0F9142C0BD04B46295D01344246BA
:101780002342F4D03800454A17F0B4F9142CF3D1B1
:10179000069B0194039300230022009300210295ED
:1017A000013327A829F09CFC041E66D1289B3D48E4
:1017B0001900059317F09EF9289B0593002B1BD069
:1017C000069B012519780F239946334B334A9846D7
:1017D000380017F08FF9289B0593AB420CD9069B74
:1017E0004246595D4B4601352B42F1D02B4AEFE77B
:1017F00001002D4817F07EF927A829F063FD58460F
:101800001DF076F809981DF073F850461DF070F839
:1018100008981DF06DF807981DF06AF80A981DF0F9
:1018200067F80B981DF064F830001DF061F8200097
:1018300053B0F0BCBB46B246A946A046F0BD01007D
:101840001A4817F057F90FAB9B4612AB079315AB2D
:10185000089318AB09931BAB9A461EAB0A9321ABB6
:1018600024AE0B93C8E74142114817F043F9DEE775
:101870000100104817F03EF9BEE741420E4817F04C
:1018800039F993E708230FAA13CB13C2FFDEC04632
:10189000441303109C13031094BA0610D8170310B6
:1018A00084FF0210E8130310E4120310C81203109F
:1018B0006013031014130310B0130310F0B50500E8
:1018C00083B01C0008480F00160017F071F80022C2
:1018D000230401926978320028781B0C009719F0D4
:1018E0003FFB03B0F0BDC04608140310F0B5D64668
:1018F0004F464646C0B5804688B0894617000A0064
:1019000001001D489A4617F0F5F811982DF0FEFADF
:10191000119903000C000025421C481CC0182678B1
:101920000134AD198442FAD153460297FF43039321
:10193000109B1248049305920695079717F0DAF862
:1019400002A8FFF755FD0E4817F032F8119B4946E3
:101950000193129B4046009302AA182319F000FB42
:1019600043425841FF234042184008B0E0BCBA4609
:10197000B146A846F0BDC046241403105814031005
:101980006014031030B58DB00793109B0692089336
:10199000D2430023040044480D0009930A930B929C
:1019A00017F0A8F80699414B994251D026D8404BE0
:1019B00099425AD03F4B994230D1089B3E480393FD
:1019C000079B0493099B049A05930093039B17F0CC
:1019D00091F83A4816F0ECFF00230193119B29007F
:1019E00000932000182306AA19F0BAFA431E984162
:1019F000FE2340429843FF300DB030BD304B99423A
:101A00003DD0304B994216D1089B2F480393079B3A
:101A10000493049A039B17F06DF8DAE72B4B994275
:101A200037D1089B2A480393079B0493049A039B8E
:101A300017F060F8CDE7274B99422AD1089B26483A
:101A40000393079B0493049A039B17F053F8C0E792
:101A5000089B22480393079B0493099B049A0593D0
:101A60000093039B17F046F8B3E7089B1C480393C9
:101A7000079B0493049A039B17F03CF8A9E7089B83
:101A800018480393079B0493049A039B17F032F8BA
:101A90009FE7089B14480393079B0493049A039BB6
:101AA00017F028F895E7C0465814031041555448DC
:101AB000434C534557525445C0F70210601403106D
:101AC000434E584E4F4B415988F7021053594E43DD
:101AD00004F802104F50454E20F80210C4100310B5
:101AE000A4F70210E8F7021058F80210F0B5DE462D
:101AF00057464646C0B58A4688B0070090460A0059
:101B000001001D489B4616F0F5FF129B002B31D0BB
:101B10000025119CE31826780134AD199C42FAD1B6
:101B2000434602935B460393109B14480493129B15
:101B3000069505934346DA43079216F0DBFF02A8A9
:101B4000FFF756FC0E4816F033FF129B51460193E7
:101B5000139B3800009302AA182319F001FA43429C
:101B60005841FF234042184008B0E0BCBB46B24693
:101B7000A846F0BD0025D3E7241403105814031021
:101B800060140310F0B5C64600B588B0150098463D
:101B90006A4602231370013B5370002302AC060017
:101BA0009180D3800F00200000215580102216F074
:101BB00095FD6B460493434606930E9B3200290025
:101BC00007930A483B00267016F094FF200019F096
:101BD000A1F9041E04D0200008B080BCB846F0BDB6
:101BE000034A0449044816F085FFF4E77C14031007
:101BF0006603000018180310AC140310F0B5CE46AD
:101C0000474680B504000F0087B001002948994677
:101C1000150016F06FFF284803789C4218D04278D0
:101C2000944234D081788C4233D0C678B44232D0DA
:101C3000002B32D0002A33D0002934D0331E35D0C7
:101C40001E4816F057FF07B0C0BCB946B046F0BDFD
:101C50000023DB0198461A4AFC23904442469B002D
:101C6000EA5000210822684616F038FD6B461C70C9
:101C70005F704B46029343460393124B1248049302
:101C8000059516F095FE684619F0DAF9DBE70123B1
:101C9000DFE70223DDE70323DBE70023C454D8E7B3
:101CA0000123C454D5E70223C454D2E70333C454F8
:101CB000CFE7C046C4140310382E002000150310CF
:101CC0003C2E0020FD14001014150310F0B5DE4664
:101CD000574645464E460023E0B583B001939A46E9
:101CE00014781379834688461419002B30D0244B7E
:101CF000002599460F0090460BE019F0EBF9B2462B
:101D0000002839D123780135E41843461B79AB42CA
:101D10001DDD484616F04CFE6378052B24D1A678CD
:101D200021003800F309012BE7D119F0D3F901960E
:101D30000028E7D08023A17838000C9AFFF75EFFD7
:101D400023780135E41843461B79AB42E1DCB84601
:101D50005B4642461A7000235A46537093705B46A6
:101D6000019ADA7052461A71584603B0F0BCBB466D
:101D7000B246A946A046F0BD024816F019FEC1E7DA
:101D80004815031060150310F0B54F46D646464679
:101D90009A4613009046C0B5DB7892781B02134335
:101DA00043441F0043461C78814644448C4684B01B
:101DB000A74230D963780B2B39D0042B2BD10021CB
:101DC0003E1BB6B220782200050000235B199BB2AF
:101DD0001218B34206D30DE010781B189BB21218EC
:101DE000B34207D250780B280AD00428F4D1D07817
:101DF0000028F1D1002903D001391078C9B2E5E7F4
:101E00002279022A02D1E279012A27D0082B02D9AD
:101E1000E418A742CED8052248462A4916F064FCA9
:101E2000484604B0E0BCBA46B146A846F0BD2278A8
:101E3000E378A4186278042AEDD13E1B591EB6B28D
:101E4000C9B2002BBED12379022BE4D1E379012B57
:101E5000E1D16379FF2BDED1002302E06279FF2A12
:101E6000D4D1A279422AD1D1524602AE6146300085
:101E700000922200FFF72AFF434613485D79A478B9
:101E800016F096FD3178114816F034FE29001048FE
:101E900016F030FE21000F4816F02CFEF1780E48A7
:101EA00016F028FE31790D4816F024FE0C4816F085
:101EB0007FFD0522310048467570B47016F014FCA1
:101EC000AEE7C0460C2100207815031090150310D2
:101ED000A4150310C0150310D8150310F81503102E
:101EE0001C160310F0B5DE4657464E464546E0B593
:101EF000047883B0023C0190640857D08027821C8C
:101F00006400130000250026A4183F0103E00233FB
:101F10000135A3420AD019887F29F8D93000B94287
:101F20007041023341198D1CA342F4D180231B015F
:101F30009C4620235B429946603B9B4640333F27AB
:101F40009846019904E00B7001310232A24210D090
:101F500013887F2BF7D963451AD246469809304338
:101F6000087058463B40034302324B700231A24294
:101F7000EED1019B9C461800654400232B7016F09F
:101F8000B9FD03B0F0BCBB46B246A946A046F0BDC1
:101F90004E46180B30435E460870980938403B4067
:101FA0003043334348708B700331CEE70500E4E7DC
:101FB000F0B5C64600B59846CB7805001400C0B011
:101FC000002B00D09AE0E37A927A1B021343627AE4
:101FD0000E78217A12020A435048310016F08AFD29
:101FE0004F4816F0E5FC21784E4816F083FD6178E5
:101FF0004D4816F07FFDE178A378090219434B485C
:1020000016F078FD21794A4816F074FD6179494847
:1020100016F070FDA179484816F06CFDE17947484B
:1020200016F068FD617A237A09021943444816F0D4
:1020300061FDE17AA37A09021943424816F05AFD7C
:10204000617B237B090219433F4816F053FDA17BB6
:102050003E4816F04FFD80236A4630003C495B0045
:1020600019F0D6F8002844D03A4F380016F0A0FCFA
:10207000E17B394816F03EFD80236A463000344942
:102080005B0019F005F900282ED0380016F090FCFE
:10209000217C324816F02EFD80236A4630002C4900
:1020A0005B0019F035F9002819D0380016F080FCD3
:1020B000617C2B4816F01EFD80236A46002130000B
:1020C0005B0019F06DF8002821D005222800254971
:1020D00016F00AFB280040B080BCB846F0BD802155
:1020E0006846FFF7FFFEE0E780216846FFF7FAFE4B
:1020F000CBE780216846FFF7F5FEB5E71A4816F0F2
:1021000057FC05222800174916F0EEFAE2E743468D
:102110006A4631002800FFF737FEDBE7441603105C
:10212000601603107416031090160310AC160310FB
:10213000CC160310E8160310041703102017031021
:102140003C1703105C1703107C1703109C17031037
:10215000090400000CDC0610BC170310DC17031088
:10216000FC1703100C2100202016031010B508F0F6
:1021700071FA10BD0123F0B50B7283B0040008F0B2
:102180009DFA0500431C0DD11249134B1A685B6878
:10219000009201938A60CB60236820005B699847B6
:1021A00003B0F0BD01F01EFEFA2206000F0000236E
:1021B00028000021920016F0C7F936184F41002F71
:1021C00003DB04498E60CF60E6E70126034F7642C9
:1021D000F7E7C046E00F002068180310FFFFFF7FFD
:1021E00070B5094D04002B78002B08D00123074956
:1021F00020000B722368DB699847012070BD02F054
:102200002DF901232B70F1E7E4F60020D40F002014
:1022100010B50400036804499B69984723682000AF
:102220001B6A0249984710BDE00F0020D40F002020
:10223000002070477047C04610B501F0D3FD00295B
:1022400005D0FA220023920015F044FE10BDFA21B9
:10225000890015F001FEF9E7020083680832002BBF
:1022600004D107E01A001B68002B03D09942F9D172
:10227000002003E00023012011600B607047C0467E
:102280008368002B08D0994202D107E0994207D019
:102290001A001B68002BF9D1002070470200083299
:1022A0000B6801201360F8E74368021D002B04D17E
:1022B00007E01A001B68002B03D09942F9D10020D7
:1022C00003E00023012011600B6070474368002B7E
:1022D00008D0994202D107E0994206D01A001B6843
:1022E000002BF9D100207047021D0B6801201360FC
:1022F000F9E7C046F8B54746CE468368804680B5C4
:10230000002B29D008234344994601F06BFD434636
:102310009E6804000D00002E58D000234F469C46B6
:10232000B268F36820002900801A9941002902DB75
:1023300014001D00BC4637003668002EF0D16346FD
:10234000002B43D0196840460A681A604B689847CA
:1023500043469B68002BD8D143465C68002C31D0A3
:102360000025237A002B29D021006368257240467E
:1023700098472468002CF4D1174B186859684346D5
:102380009E68002E04D112E020002900002E0ED0FD
:10239000330002009C68DD680B00121BAB413668FD
:1023A000002BF1DCF2D1002AEED1002EF0D1434611
:1023B00018615961C0BCB946B046F8BD2468002C0C
:1023C000CFD1D9E7044B18685968F0E743465C68F9
:1023D000002CC5D1D0E7C04668180310024B18681E
:1023E0008007C00F7047C04600C00640104A114B1E
:1023F00010B512184B419900900F0843990F5040A7
:1024000059400D4A0D4B16F09FF803004A01C00ECB
:102410001043CA0E58405140094B0A4A16F094F82E
:1024200003004A00C00F1043CA0F5840514010BD6E
:10243000157C4A7FB979379EB9E5E41C6D4758BFD2
:10244000BB49D094EB113113F0B504684568060020
:1024500023002A00C6468068F16803430A4300B59A
:10246000134304D101F0BEFC03000B43FAD02A064B
:10247000230A6040270613432A0A3A43070CBC4646
:1024800069404B40984663460F041F434240030493
:102490005A4043467B4032607360C20E4B01134387
:1024A000C90E40010843B360A10FAB000B43A2006B
:1024B000A4185D41EB01620E1A43E4016B0E234345
:1024C000F0601E0017005B0FD100F0001943801967
:1024D000794180BCB846F0BDF0B5DE4657464E4661
:1024E0004546E0B5B84B8DB01B78002B00D1ECE031
:1024F00008AB9846B54BB64C0393B64BB64F049316
:1025000010220499404616F0EFF8B44B1B78DBB26A
:10251000059301F067FCFFF769FF089B58404346AD
:102520005B680890594043465960AD4B9B69DB049A
:1025300000D5C0E014F05AF9EFF305839B46B94685
:102540005F46A84B256866689A4628003100002F30
:102550001AD001F051FCEFF3108272B653461B689B
:10256000002BFBD0BFF35F8F2368AB420FD0BFF3CC
:102570005F8F00215346196082F3108825686668D2
:1025800028003100002FE4D101F00AFBE3E7636883
:10259000B342ECD10125924B1600D8694F46054055
:1025A00001F020FC0A22002380185941002900DA9A
:1025B0007DE03A687B6892185B412060616028008A
:1025C0001C00130010430093019438607C60BFF33B
:1025D0005F8F0024834A146086F310880199FFF707
:1025E00005FF43469B68804A58404346DB68944653
:1025F000594043469860D960039B7C4A1B78DB00B6
:102600006344986890425ED00021FFF7EFFE089B7C
:10261000184043465B680890194043465960EFF301
:10262000108572B66F4A1368002BFCD0BFF35F8F22
:102630006A4B059A1B78934219D0049940460B685F
:1026400040681A00089B5A40089242464B68434033
:1026500053608B6800934346009A9B685A40CB684E
:102660004146C96800934B4041468A60CB60404672
:10267000FFF7EAFE102206000C000498414616F00F
:1026800033F8564B554A1B780133DBB21370BFF356
:102690005F8F0022534B1A6085F3108830002100B1
:1026A0000DB0F0BCBB46B246A946A046F0BD012025
:1026B0004F4940427DE74F4BDA6BE0231340402BFC
:1026C00000D039E736E79C609EE74B4B9946186887
:1026D00059684A4B9C464A4B9846830E8F011F43CC
:1026E0008601030C0D041D4332003B000404121943
:1026F0006B41121A8B41614601C98C460021009042
:1027000001910098019980185941C445E5D14B4683
:1027100018605960FFF76AFE08AB9846089B58405E
:1027200043465B6808905940434606A8596000F04C
:1027300021F906980799FFF759FE43469B685840D0
:102740004346DB68594043469860D960244B9B69F7
:10275000DB0436D5274BDA6BE0231340402B30D017
:10276000EFF305839A4640230024039300231D4F73
:1027700000930194164C00239B46534625686668D7
:1027800028003100002B19D001F036FBEFF310893F
:1027900072B63B68002BFCD0BFF35F8F2368AB425F
:1027A00030D0BFF35F8F5B463B6089F310885346A0
:1027B0002568666828003100002BE5D101F0F0F9AA
:1027C000E4E714F013F8CBE7EEF60020DFF6002084
:1027D000E81A00208819002098190020E0F600204F
:1027E00000000640300100D000000340FFFFFF0062
:1027F000FFFFFF7F0080004080190020001C0420A4
:10280000002004206368B342CBD1009A019B1000E2
:10281000190080185941484BDA69012313400343DA
:102820000093019101F0DEFA0A2200238018594139
:10283000002949DB039B20606160012B3AD100989D
:1028400001993E4F38607960BFF35F8F00233C4DA4
:102850002B6089F31088FFF7C9FD089B5840434659
:102860005B68089059404346596001F0BBFAFFF796
:10287000BDFD43469B6858404346DB68594043468C
:102880009860D960EFF3108672B62B68002BFCD0ED
:10289000BFF35F8F2B4B1B78002B19D02A4B039370
:1028A0002A4B0493BFF35F8F0022254B1A6086F3F7
:1028B000108825E6BFF35F8F00233B6089F3108803
:1028C000039B013B039356E7012021494042B1E7B6
:1028D000204BDA681F2A23D05A691F2A22D0DA69CE
:1028E0001F2A25D05B6A1F2B1FD013F07FFFFF220A
:1028F000FF231549DB000A70174A0391944605220D
:1029000063445A604046FFF79FFD104B10221800A9
:102910004146049315F0E8FE01230A4A1370C1E70B
:1029200000230393039BDAB2E3E71C3B0393F9E72D
:1029300002230393F6E7C0460000064098190020E2
:10294000300100D0EEF60020DFF6002088190020CC
:10295000FFFFFF7F000003400800034010B5FFF7B2
:10296000BBFD10BD10B5024800F00CF810BDC0460C
:1029700070F5002010B50822014915F0B5FE10BD14
:1029800070F5002030B5002589B00400092200212F
:1029900001A8009515F0A2FE0922002105A80495C2
:1029A00015F09CFE4B236A466846137004A90D225D
:1029B0002CF062FE152108222000694415F094FED7
:1029C00009B030BDEFF3108072B6034A1368002BD4
:1029D000FCD0BFF35F8F70472C0100D0BFF35F8F37
:1029E0000022024B1A6080F3108870472C0100D03F
:1029F00070B5EFF3108C72B60D4D2B68002BFCD028
:102A0000BFF35F8F0724CB08C618C05C01230C40BE
:102A1000A3401C000440034207D103433370BFF3BB
:102A20005F8F2C608CF3108870BD100013F0C6FE11
:102A30002C0100D0F8B54746CE46884680B5EFF366
:102A4000108C72B6214D2C68002CFCD0BFF35F8F28
:102A50009A422CD8D4080727055D0619012417408F
:102A6000BC402C421FD007210127894609E0D40829
:102A7000055D06194C4639001440A1400C0029425E
:102A800011D001329342F2D201204042BFF35F8F56
:102A900000220E4B1A608CF3108800280FDBC0BC9C
:102AA000B946B046F8BD2C4310003470EEE7BFF3D2
:102AB0005F8F00232B608CF3108801204042434637
:102AC000002BECD0089813F079FEC0462C0100D002
:102AD00030B5EFF3108C72B60A4C2368002BFCD093
:102AE000BFF35F8F07230122CD0819408A40435D61
:102AF00093434355BFF35F8F002323608CF310880B
:102B000030BDC0462C0100D00021044B044ABFF365
:102B10005F8F02C39342FAD17047C046000100D0D4
:102B2000800100D0044A1078431CDBB2172B00D977
:102B3000102313707047C046F80F002000B5054BF6
:102B400083B00100009318221F230348FFF772FF90
:102B500003B000BD3018031050300020142310B50E
:102B60000100188804331B88984710BD162310B540
:102B70000100188802331B88984710BDF8B54746F6
:102B8000CE4680B50F1E19D0142399460433040095
:102B90000025012698464B461888434621681B8825
:102BA000984701C4431E9841013540420640AF4258
:102BB000F1D13000C0BCB946B046F8BD0126F8E7F7
:102BC00030B50C2083B001F02DFCFFF707FC002886
:102BD0000ED0944B944A1A605A609A60DA601A6177
:102BE0005A619A61DA611A62904A5A6203B030BD42
:102BF0008F4CA06701F01EFC01228E4B1A60636CA3
:102C0000012BFCD103228C4B1A60894A936B012B58
:102C1000FCD101330121894A89480093043301F032
:102C2000A9FB0523874A00930121874801F0A2FBF5
:102C3000864B5A68FF2A02D8802252005A608022AE
:102C4000784C7D4B21691201804D1A60002905D016
:102C5000606915F001F901300138FDD1E0217B4BAD
:102C600002201A681140802252012A43116019681B
:102C7000484003210140116004219A681142FCD0B0
:102C80008022802192012A43090111608022520092
:102C90005A606F4B23616F4B5968FF2900D85A6007
:102CA0000321644A6B4B116002399A681142FCD0CF
:102CB000E0201A681040802252011A431060186800
:102CC0004840032101400220116062498A68104295
:102CD000FCD0802292011343802212011A608022CC
:102CE0005D4B52004A6063615C4B5968FF2900D814
:102CF0005A6080225A4BE1691201584D1A6000292E
:102D000005D0606915F0A8F801300138FDD1E02246
:102D100052490B681A4080235B012B431A608023C1
:102D200080229B012B4312011A6080223E4B5200ED
:102D30004A60E3614B4B5968FF2900D85A608022F2
:102D4000494B216A1201474D1A60002905D060697C
:102D500015F082F801300138FDD1E02241490B68BD
:102D60001A4080235B012B431A60802380229B0141
:102D70002B4312011A60802380225B004B602A4B98
:102D8000D2022362394B5968914200D25A608022A4
:102D9000374B616A1201354D1A60002905D0606910
:102DA00015F05AF801300138FDD1E0222F490B68A7
:102DB0001A4080235B012B431A60802380229B01F1
:102DC0002B4312011A608023DB024B60174B6362B6
:102DD000284B5A68FF2A02D8802252005A6080226B
:102DE000254BA1691201234D1A60002905D06069A5
:102DF00015F032F801300138FDD1E0221D490B6891
:102E00001A4080235B012B431A60802380229B01A0
:102E10002B4312011A6080235B004B600E4BA361B1
:102E2000E4E6C04654300020006CDC021BB7000012
:102E3000008000403CB0004030B00040002F685996
:102E400000800240008C864700C002403080004075
:102E5000001BB7003C80004040597307548000407D
:102E600054B000406080004060B000406C80004082
:102E70006CB000404880004048B00040014B8000EA
:102E8000C058704754300020094A830094464022BD
:102E9000634410B51C68C0006240C0241440802206
:102EA000520113431C60034B9C466044416010BDBB
:102EB00004C00140004001400A4B80009C460423AE
:102EC0006044002901D00C230821002A00D10B0006
:102ED000026853400C221A4080235B0118430260B1
:102EE0007047C04604C00140084B80009C466044C7
:102EF000002905D080239B011843022303607047FB
:102F0000C0239B01184302230360F8E704C001407B
:102F1000D0231B061B6830B50500581E83410F489F
:102F20005C42844607203023284023408000EC0880
:102F3000814020000A4D3C3063448000A400415190
:102F40001B19002A04D0802292011343196030BD5E
:102F5000C022920113431960F9E7C04600410140C5
:102F600000400140D023F0B5C64604001B06984639
:102F70001B680C4F9B00F8580D00160000B504426A
:102F800009D1044332002900FC500D2000F09AF8CA
:102F900080BCB846F0BD13F029FC43461B689B007B
:102FA000F858EEE75CF5002010B504000D2000F0A5
:102FB0007DF9D0231B061B6802499B005A58A24387
:102FC0005A5010BD5CF50020084B80009C466044C0
:102FD000002905D080239B011843402303607047DC
:102FE000C0239B01184340230360F8E704C001405D
:102FF0000123D0228340120693629361094A830021
:103000009446402263441968C0004A40C0211140E0
:103010008022520113431960034B9C4605236044F0
:103020004360704704C001400040014001238340D9
:10303000002904D0034A1360034A13607047034A0F
:103040001360FBE780E200E000E100E080E100E0E7
:1030500001238340014A13607047C04600E200E04C
:10306000024B10309B688000C058704700ED00E0B4
:1030700070B50D00EFF3108672B60F4A1368002B7F
:10308000FCD0BFF35F8F0D4B10309B6884001B5941
:103090000B4A934203D09D4201D013F0A7FB074B8C
:1030A0009B681D51BFF35F8FBFF35F8F0022024B00
:1030B0001A6086F3108870BD240100D000ED00E096
:1030C000CD010010F0B557464E46DE464546E0B508
:1030D00085B0060002911700EFF3108B72B6674AB5
:1030E0001368002BFCD0BFF35F8F0025644B5D5746
:1030F0009A46002D00DAA4E06B00624C03935B1942
:103100009B009846A146C1444B4652469B791036D7
:1031100013705D4BB2009B68019299580B1B2F2BCB
:1031200034D95A4B994200D0A4E0039B584A9C469C
:10313000584B6544AD006353434602336519E418A8
:10314000554B0121043B1B1B1B055B0D13436B807F
:10315000524BEF71AB80FF23AB71029BAB604B46D0
:103160000B431900484B019A9B689950BFF35F8F3E
:10317000BFF35F8F0022414B1A608BF3108805B0BC
:10318000F0BCBB46B246A946A046F0BD01200A00ED
:103190008243D379BB422FD845464E46130040495F
:1031A0001B1B5B415943090D3A4B63533A4B0235A4
:1031B0006519043B5B1B1B05354D5B0D2B43738071
:1031C0000426B446E0444444131F1B1B4C46A17123
:1031D00002991B05A16049465B0D2B43A380314B2F
:1031E000E77101431360BDE75800C0188000201844
:1031F000C679BE422BD902000623D356002BF3DA40
:10320000101D82462848804604267642B446E14492
:1032100050464E46361A3005400D824656461C48EA
:10322000957106439680039A944665441D4AAD0005
:10323000641922604246A371029BA280E771A360D9
:1032400090E713F0D3FA002553465D5754E7101D5D
:10325000824690884005001584464046D444664620
:1032600004302018301AE0260005400D36023043A5
:103270008046C9E713F0BAFA57E7C046240100D0E8
:10328000EAF60020FC0F002000ED00E0CD01001068
:1032900000E0FFFF00A1FFFF2C10002001BDFFFF99
:1032A000AAAA00000148804701BD0000F0B5DE4633
:1032B00057464E464546E0B50C0083B0EFF3108903
:1032C00072B6584A1368002BFCD0BFF35F8F564B81
:1032D0009A68030010339F00D559544A904695428E
:1032E00032D0A54243D0524EAA1B2F2A2CD80122FD
:1032F0008240924651464F4A126811400191514610
:103300004D4A1160BFF35F8FEFF305829346002AA9
:1033100033D101232A009A4393689C4208D177E075
:103320004B005B189B00F3189968A1422AD01A0041
:10333000062151560029F3DA019B002B19D0524681
:103340003E4B1A603B4B1A60374B9B68DD51BFF315
:103350005F8FBFF35F8F0022324B1A6089F31088B2
:1033600003B0F0BCBB46B246A946A046F0BD15006E
:10337000EAE75246304B1A60E6E79342C9D013F0B1
:1033800035FAC6E706215956002921DB4A005018B4
:10339000800034188046A0689860E079D8710620D3
:1033A00020569871002824DBA488F01A640524159F
:1033B00044440019E0240005400D24022043988075
:1033C00052181F4B9200B6181A781970B271B3E7F1
:1033D000594600290FD1FF3191711A49918018493E
:1033E0000A789A71184A9B1B5B415A43120D0A7066
:1033F000A2E71648E3E7164A1649D21A083A5002DD
:10340000400D01439980144952080A43DA8093E73A
:103410000621515613000029B8DA5A46002AEAD18B
:103420004546DCE7240100D000ED00E0CD010010AE
:10343000FC0F002000E100E080E100E080E200E01D
:10344000EAF6002001BDFFFFAAAA000001BD0000AE
:103450003610002000F0FFFF00F8FFFF032310B537
:103460000400074A18409446C0009C43FC33834044
:103470006444226881409A4313000B43236010BDCB
:1034800000E400E070B5EFF3058101240443EFF39D
:10349000108C72B6214A1368002BFCD0BFF35F8FEB
:1034A0001F4B05001F4AED1A6D416A43120D1E4D58
:1034B0008900AE6852B27658A6421CD006215956F1
:1034C00091421CD012215956914222D01E215956A8
:1034D000914220D02A2159560324914210D0134BF7
:1034E00019781A708171BFF35F8F00220B4B1A603D
:1034F0008CF3108870BDAB680D4C5C50EFE7002476
:103500006100091989005B18FF21997109499980A7
:10351000E5E70124F4E70224F2E7C046240100D0E5
:10352000FC0F0020AAAA000000ED00E0EAF600204F
:10353000CD01001001BDFFFF054B064A1360064A8E
:10354000136053609360D36013615361936170475C
:103550008080808000E400E004E400E01F2110B5DA
:10356000091A0248FFF7B4FA10BDC046F3F600206E
:1035700000B5074B83B001000093002205230548E6
:10358000FFF758FA002801DB1F23181A03B000BD0B
:103590004C180310F3F6002070B504000E0015005F
:1035A000FFF7C0FA0100200000F006F8A680E580D1
:1035B000BFF35F8F70BDC046024B9C4661448900DB
:1035C000016070474000003410B50400FFF7AAFA0C
:1035D00001002000FFF7F0FFFF232371BFF35F8F8F
:1035E00010BDC04610B50400FFF79CFA0100200092
:1035F000FFF7E2FFFF23A380BFF35F8F10BDC0463C
:1036000010B504000120FFF799FA044B9C46604472
:1036100080002060BFF35F8F10BDC04640000034C3
:1036200083680B4810B58446614462440901120165
:103630009A18591854684B6801209C4201D802D04E
:103640000020C0B210BD12680B689A42F9D8F7E7A3
:10365000FFFFFF0F0A4B1968EFF3108072B60A687C
:10366000002AFCD0BFF35F8F1B68BFF35F8F00227F
:103670001A6080F3108840BF002000217047C046C8
:1036800080F60020F8B557464E464546DE46E0B582
:1036900099460CAB1C780DAB1B78060090469A46F9
:1036A0000768002C11D1BC7B002C42D065003B6820
:1036B0002D19033D59194B78BB73002B00D1FB73B7
:1036C00000238B704B700B7004E065003B682D1974
:1036D000033D5919B2682A4B94464246E3181B0130
:1036E00063441A604A465A600A9A9A600B9ADA60F2
:1036F00000238B704B700B707B7B9B46002B2BD079
:1037000022005946B8687B6898473A68002816D066
:103710005B4658465B005B445519033BA870D118C3
:10372000D35C002B00D06B705B460C707B73A345A1
:1037300013D0F0BCBB46B246A946A046F8BD5B46D6
:103740005B005B44033BD3189C705119525D002A07
:1037500000D05A705B460B707C7342464B46307DFE
:1037600000F0A0FB051E06D05346002B03D121001C
:10377000306800F0C1FD0E9B002BDAD01D70D8E739
:10378000FFFFFF0FF0B5DE4657464E464546002385
:10379000E0B58BB00893664B8200D45800239B465B
:1037A000099000F01FFB626806000F00EFF3108520
:1037B00072B61368002BFCD0BFF35F8F23689C4662
:1037C0005B7B9946002B68D0A2685A4B90464B44CD
:1037D0001B01984443461A685B6810001900801B5F
:1037E000B941002963DD099800F05CFB0023002249
:1037F000984600230692079300239A466368BFF316
:103800005F8F5A461A6085F310885346002B08D103
:103810000028C6D10BB0F0BCBB46B246A946A046B4
:10382000F0BD089B414618024B461843D0476268DA
:1038300006000F00EFF3108572B61368002BFCD062
:10384000BFF35F8F002F4FDB33003B4302D0236970
:10385000002B60D12368D97B002907D04A00521879
:1038600019688C4649466244033A51709A7B002A93
:1038700001D14A469A734A46DA734B46E168013BE6
:10388000CA5C0132CA545B4623616368BFF35F8F31
:103890005A461A6085F3108883E700230022984671
:1038A000002306920793002300209A46A6E70029EA
:1038B00001D1002897D10021604600F09BFC4346CF
:1038C0001A685B680692079343469B689A4643468C
:1038D000DB689846E3684B44013B1B7808931B0266
:1038E00003432361002089E72369002BB2D0069AA5
:1038F000079B921BBB41002B15DB5946049101210C
:1039000003914946029141460191514620000091A0
:10391000FFF7B8FEB7E700F065FA32003B00121877
:103920004B41002BE9DA0122034B5242E5E7C04646
:1039300090E50020FFFFFF0FFFFFFF7F10B5144C45
:103940006368002B04D00A211248FFF735FE10BD32
:103950002300114A1021206800F066FB032000F0CC
:1039600035FA032000F00EFB03200C4900F054FA56
:10397000FFF7D8F80A4B9C4603232375D0231B0678
:103980001B6860446375074B80006060DC60DAE7A9
:103990004410002080F600202136001085370010EA
:1039A0004000003490E5002000487047441000209B
:1039B000F0B557464E464546DE46E0B585B0019324
:1039C00010AB1B780600039300239A46984600929A
:1039D0007268EFF3108972B61368002BFCD0BFF346
:1039E0005F8F3568AC7B002C49D067002B683F198E
:1039F000033FDB195A78AA73002A00D1EA73B16831
:103A0000484A8C4600980199A2181201624410603D
:103A100051600E9991600F99D16042469A705A7028
:103A20001A706B7B9B46002B45D022001900A868BA
:103A30006B6898472A68002830D05B4658465B0080
:103A40005B44D719033BB870D118D35C002B00D06E
:103A50007B705B460C706B735C452DD0F3681B1953
:103A6000013B18787368BFF35F8F42461A6089F391
:103A700010885346002B2CD10002204307E07368C6
:103A8000BFF35F8F1C6089F310880120404205B0AE
:103A9000F0BCBB46B246A946A046F0BD5B465B0003
:103AA0005B44033BD3189C70D119D25D002A00D02F
:103AB0005A705B460B706C73307D009A019B00F06E
:103AC000F1F982460028C9D02100306800F014FCCA
:103AD000C4E7039B002B23D00E9B00200F9998472F
:103AE000030004000D000B431AD000290ADA009AE3
:103AF000019B121BAB4100920193002B0ADB039B3D
:103B00009A4665E700F06EF924184D41009401953E
:103B1000002DF4DA0123044C5B4200930194EEE79C
:103B20000020B4E7FFFFFF0FFFFFFF7F70B5426883
:103B30000400EFF3108572B61368002BFCD0BFF3BE
:103B40005F8F2068CEB2437BB3420AD0FF230B4085
:103B50005A00D318026894466344033B9B78002BB9
:103B600013D0E268FF2394460B406344013B0A0AEA
:103B70001978D2B291420ED000206368BFF35F8FF4
:103B800000221A6085F3108870BD22698A42F3D141
:103B900000202361F1E7310000F0AEFBEDE7C04605
:103BA000F0B504000D0006267642F717C646361912
:103BB0006F4100B584B08F4214D811D000F012F9D3
:103BC00032003B00121A8B41002B15DC002B3ED03B
:103BD0002000290000F010F904B080BCB846F0BD08
:103BE0008642EBD90026002700F0FCF832003B00AB
:103BF000121A8B41002BE9DD002302930193154B30
:103C00003200009314483B00FFF7D2FE0028DFDBB0
:103C100000239846BC46114A114F7B6A9C4504D844
:103C2000B96A8E42D4D99C45D2D11168EFF3108085
:103C300072B60B68002BFCD0BFF35F8F1368BFF325
:103C40005F8F4146196080F3108820BFE5E7002AA6
:103C5000BED0D1E7553600104410002080F6002079
:103C60000040054070B5060000F0BCF8FA220400E0
:103C70000D00002330000021920014F065FC0019B3
:103C80006941002902DBFFF78BFF70BD012001496C
:103C90004042F8E7FFFFFF7F70B5EFF305830500B3
:103CA0000C0084B0002B0AD0164A0020536A9C42B4
:103CB00003D8926A0130AA421FD304B070BD124EDD
:103CC00002930193114B0200009330000B00FFF7A9
:103CD0006FFE011EE8DD20BF3000FFF727FF094B14
:103CE0000020596A8C42E8D89B6A0130AB42E4D28A
:103CF000641A631E9C41E0B2DFE7E41A631E9C4134
:103D0000E0B2DAE7004005404410002055360010CC
:103D1000F0B5EFF30582D6464F4646461000C0B5D3
:103D20001038EFF3108872B6214C2368002BFCD0BA
:103D3000BFF35F8F0123190081401E4D1F0069638F
:103D4000AA461D4D29601D4D2E78AC463500C54054
:103D50002F402B4209D1BFF35F8F276088F3108873
:103D6000E0BCBA46B146A846F0BD5346144D5F6A62
:103D700083005D59AF420ED3124A8E439B58624670
:103D80001670BFF35F8F0022226088F31088002B2B
:103D9000E6D09847E4E70C4B92009C4662441368D7
:103DA0001360BFF35F8F0023236088F31088D7E789
:103DB000280100D0004005403C700540F2F600208C
:103DC00084F600201C2C0020D03F054010B50100D7
:103DD000024A0348FEF70CFE10BDC04670180310DF
:103DE000E1F60020034B596A0A00986A596A8A4230
:103DF000FAD1704700400540064A536A9942FCD800
:103E000007D1044B02E05A6A914202D19A6A824277
:103E1000F9D370470040054070B504000D00EFF382
:103E2000108672B61A4A1368002BFCD0BFF35F8F5E
:103E3000002D1BD02000FFF713F9164981420AD04C
:103E40002000FFF715F901212000FFF7EFF801230B
:103E5000A340114A1360114BA400E550BFF35F8FDC
:103E600000220B4B1A6086F3108870BD0B4BA2002A
:103E7000D5500122A2400A4920000B7893430B70D1
:103E80000449FFF713FA00212000FFF7CFF8E5E718
:103E9000280100D0113D0010386005401C2C002086
:103EA000F2F60020F0B54F46D6464646C0B50700AC
:103EB0002F4C616A0D00A66A616AA942FAD18B4251
:103EC00008D805D00120E0BCBA46B146A846F0BDEE
:103ED000B242F7D9EFF3108A72B62648016800297A
:103EE000FCD0BFF35F8F0125BD402349204C88469D
:103EF000097889462943C9B28C4641466046087014
:103F0000391D1E48890065630A51B9000B50216AAA
:103F10000020294219D0616A0800A66A616A8142BC
:103F2000FAD18B4219D801D1B24216D8CC451DD056
:103F30000F4B1F201D625D6301230740BB40104AE9
:103F40001E38136043464A461A70BFF35F8F002243
:103F5000084B1A608AF31088B5E70020BFF35F8F23
:103F60000022044B1A608AF31088ACE70120ECE7CA
:103F700000400540280100D0F2F6002084F6002021
:103F800080E200E0EFF3108C72B60A490B68002B58
:103F9000FCD0BFF35F8F01238340074A07481362B9
:103FA00002789A430270BFF35F8F00230B608CF39B
:103FB00010887047280100D000400540F2F600202C
:103FC00070B5050014001600002915D00C00002A59
:103FD00012D080686B689847296800280ED073005B
:103FE0009B196200033B1219CB18033A9C70881886
:103FF0008A5C002A15D10670200070BD63001B1971
:104000007200033B9219CB18033A9E7088188A5CA1
:10401000002A02D104703400EEE75A7004703400B4
:10402000EAE75A700670E7E730B583600023CCB248
:1040300043730133047342608373C4730D000068DB
:10404000012C06D9421C0133DBB2137003329C42AF
:10405000F9D1FF2129404B0059180023401803389B
:10406000437030BDF8B5CE46474606000C0080B51B
:10407000002907D04D0003686D18033D5A19577881
:10408000002F04D12000C0BCB946B046F8BD79006D
:10409000C919033988464344597889460021597023
:1040A000517073683A00210080689847336800288F
:1040B00014D042469A18947059195B5D002B00D0B9
:1040C00053700F70270049463000FFF7CBFF3900CF
:1040D00002003000FFF774FF0400D3E74246414678
:1040E0005D19AF709A185B5C002B00D06B70147078
:1040F000E9E7C046F0B557464546DE464E46E0B5D0
:104100000D006B0001685B19DF1E0400C85D83B001
:104110000192CA19002850D043001B18033BCB184A
:104120005E78B446002E1AD1019E002E42D0E67B66
:10413000002E04D073009B19CB18033B5D70A37B4A
:10414000002B00D1A573E57300282FD100235370F5
:1041500003B0F0BCBB46B246A946A046F0BD720013
:104160006244033A89184A78904600224A70914680
:104170005A70010032002000FFF722FF43468246BA
:10418000002B07D05B0021684344033BCB185A78CF
:10419000002A16D1424651462000FFF711FF216840
:1041A000019BCA19002BC2D10028CFD043001B1895
:1041B000033BCB1800219970C8E7019B002BB6D1B7
:1041C000C4E75000801803380918487883464846E9
:1041D0004870587041462000FFF7F2FE594680466D
:1041E0002000FFF73FFF414602002000FFF7E8FEF6
:1041F0008046CFE7F0B557464546DE464E46E0B529
:1042000083B00191457B04006B0000685B19DF1EE1
:10421000C15DC219002952D04B005B18033BC31883
:104220005E78B446002E1CD1019E002E44D0E67B61
:10423000002E04D073009B19C318033B5D70A37B51
:10424000002B00D1A573E573002931D1002328008C
:104250005370617303B0F0BCBB46B246A946A0469A
:10426000F0BD72006244033A801842789046002202
:10427000427091465A7020003200FFF7A1FE43467B
:104280008246002B07D05B0021684344033BCB18D8
:104290005A78002A17D1424651462000FFF790FE77
:1042A000019B01002068C219002BC0D10029CDD08C
:1042B0004B005B18033BC31800209870C6E7019BB6
:1042C000002BB4D1C2E75000801803380918487891
:1042D000834648464870587041462000FFF770FEFC
:1042E000594680462000FFF7BDFE414602002000EF
:1042F000FFF766FE8046CEE770B5040000292CD09B
:10430000437B8B422ED0056848004018033828189C
:104310008278002A21D053009B18033BEA5CEE18F8
:104320008A4202D11BE0002A08D053009B18033BAD
:10433000EB185A788A42F6D142785A70002301224B
:10434000837043702000FFF7D5FE617B02002000E0
:10435000FFF736FE6073012000E0002070BD437857
:104360003370EBE701221900FFF7C4FE60730120F0
:10437000F4E7C046F0B5C646040000B50C209046F0
:104380001F000E0013F068FD4101091A8D01691A22
:10439000C90009188901404613F05EFD069B3F04E1
:1043A0001A0323681743002B22DB1A4B1A4DE2181D
:1043B00053425A4180235B019C461203174B6244CF
:1043C0001A60174B1A601100AB689943FBD1C022E9
:1043D000231D92011A4321232660A06013602368E5
:1043E000002BFCDA0823E760136080BCB846F0BD00
:1043F0003F2322681340B342D7D1A3681B051B0D8E
:104400008342D2D1EE22E368D2021340BB42CCD128
:10441000EBE7C0460040FDBF00C0004000E00040A8
:1044200000F000408023024A9B000343D3627047A0
:1044300000800540AA23064A1B0113602F2305496B
:10444000D360054B19605368002BFCDA7047C046F7
:104450000040024000B0FA000060024010B501F0D8
:1044600043FC00F0A7FB00F06BFD00F015FE06F02A
:1044700039F901F0C9FC00F0DFF906F0A3F810BD2E
:1044800040BA80B27047C04600BA7047F0B5C64621
:10449000040000B50800884616002AF037FD050024
:1044A0002000002D1AD02378002B1AD0A6196219EB
:1044B000964216D34246177806E063780134002B03
:1044C0000FD0621996420CD39F42F6D12A00414682
:1044D00020002AF049FD0028EFD1200080BCB8461A
:1044E000F0BD0020FAE7C046F0B500222026845C2B
:1044F0008B5C9C420AD025003543EDB22F00613F12
:10450000192F08D83343DBB29D4204D10132002C6D
:10451000EDD1002000E00120F0BDC046F0B5C64658
:104520000600884600B501292ED9002A24DB002385
:104530004D1E45192B70002A2BD00700BD4225D9EE
:10454000D317D4185C4001E0AF421FD020000A21ED
:1045500013F05AFC013D3031200029700A2113F07C
:1045600053FC041EF0D1464429003800721B2BF086
:1045700003F980BCB846F0BD2D23037000234D1E07
:104580004519471C2B70D9E70129F2D1002333705C
:10459000EFE7302342700370EBE7C046F8B54746BB
:1045A000CE4680B50701040038180001103081465E
:1045B000404D414E2B688846B144002B02D02A7AE8
:1045C000A24258D0EB68002B02D02A7DA2424BD0E9
:1045D000AB69002B03D02022AA5CA2423DD06B6ABB
:1045E000002B03D02C22AA5CA2422FD03B191B0126
:1045F000F318DB7B002C04D0B27A022A41D0012CC4
:1046000006D08D225200B25C022A43D0022C05D083
:104610002A4AB25C022A43D0032C03D0284AB25C57
:10462000022A42D0032B0DD8264D9B00585906F084
:1046300047FB00223C1924013619F37B9B005A5199
:104640000423F373C0BCB946B046F8BD41464846A2
:10465000AA6A984700236B62C8E741464846EA6960
:1046600098470023AB61BAE7414648462A69984714
:104670000023EB60ACE748466A68984700232B604C
:10468000A0E7F27B9A42BAD104233C1924013619DF
:10469000F373D7E72022FF32B25C9A42B6D1F3E738
:1046A000094AB25C9A42B7D1EEE7084AB25C9A4234
:1046B000B8D1E9E7BC3A0020F43A00202A02000011
:1046C0003A030000AC3A00202F0200003F03000034
:1046D000F0B5DE464E46574645468346E0B50301F3
:1046E00087B04F4A01935B441B01D618F27A012A26
:1046F00000D992E04B4992008C58002C00D17FE009
:1047000010331D00464B9C46654428002AF0FEFBF2
:10471000A022123081B29200362000F0CDFE8146F8
:10472000002866D003AC0C220021200013F0D6FF35
:104730003089FFF7A5FE01232080A3700C22FF33F0
:1047400021004846A38001F075F9374B0C269A46A4
:104750004F46013D6B1C98466B78002445462E2B36
:1047600006D156E06B7801340135E4B22E2B01D02E
:10477000002BF7D14346EB1A9BB299462300F3185E
:10478000534542DC22003100380001F007FA731C67
:104790004A469BB234194146380001F087F9A3B26A
:1047A0002A785E1CB6B2002AD4D11C003100380031
:1047B00001F0F4F91D4B02340422029302A9A3B2C2
:1047C000380001F073F9164A019B944615495B4481
:1047D0001B0163448C46DA7ADB7B15499B0092000F
:1047E000585862443523390006F0F4F9380000F0D7
:1047F000C5FF07B0F0BCBB46B246A946A046F0BD17
:104800000021FFF7CBFEB472F3E7380000F0B6FFEB
:10481000EFE7002200239146B1E7064811F0CEFFF2
:10482000F43A0020EC3A0020FEFF000000010001F5
:10483000AC3A0020941803107047C04682B001289B
:1048400001D902B070478000002903D00A68044BE8
:10485000C250F6E7034A024B12680192C250F0E7D9
:10486000EC3A00202C330310F0B546464F46D646AE
:10487000464BC0B5464E8D273400002598467F0034
:10488000A37A022B35D02CD8002B1FD0414B994650
:10489000414B9A46FEF762F8B37A80B2022B40D0C1
:1048A000F35D022B43D04B46F35C022B48D05346BA
:1048B000F35C022B4DD002230122A372002320813E
:1048C000E372280022736373FFF702FF013511348E
:1048D000EDB2FF34042DD3D1E0BCBA46B146A846B0
:1048E000F0BD032B4ED12368002B13D10023A372FC
:1048F000ECE7237B013BDBB22373002BE6D1637B28
:104900000133DBB26373042B29D023732800FFF734
:10491000DFFEDBE7013B2360002BD7D10023A3722E
:10492000D4E733898342B5D0F35D022BBBD1173373
:10493000FF33F35A8342ADD04B46F35C022BB6D122
:104940008A239B00F35A8342A4D05346F35C022B84
:10495000B1D1CE239B00F35A8342ACD19AE7E37ADC
:10496000002B08D142465268002A04D0012263730A
:10497000E2722273CAE700212800FFF70FFE00232E
:10498000A372A3E7054811F019FFC046EC3A0020D6
:10499000F43A00202A0200003A030000C81803106D
:1049A000F0B583B06B469C1D0023238001331E00AD
:1049B0000640184205D0002903DD037801396370F1
:1049C0000130032213000340104205D000230129C7
:1049D00038DD03880239023007294BDD0839072208
:1049E0000F009743020005000832BF182A689A1882
:1049F0009A429B415B42D2186B680835D3189342A8
:104A0000924152429B18AF42F0D1CA08551CD200C5
:104A1000ED00891A1A044019120C1B0C9B1801296D
:104A200010DD02889B188A1E012A05DD45885B1966
:104A3000052901DD81885B1851084D1C6D00490076
:104A40004019511A012901D1027822702288D21806
:104A5000130C1204120C9B18180C1B041B0CC0180E
:104A6000002E04D0030600041B0C000E184380B275
:104A700003B0F0BD1A00D0E7F0B54F46D646464623
:104A8000C0B591461A68089B8A46196804000B0451
:104A90001B0C090C5B181104090C5918130C5B183A
:104AA000180C1B041B0CC318180C1B041F0CC71973
:104AB000002C21D0FF2300260125984661896068DB
:104AC000FFF76EFFC019030C0004070CDF196389A0
:104AD0001D4207D042463B06380A1B0C10400343D8
:104AE0001F006E402468002CE8D1002E04D03B0645
:104AF0003F041B0C3F0E1F43534698B2FFF7C0FC08
:104B000004004846FFF7BCFC2018C019030C000441
:104B1000000C1818030C0004000C1818C04380B2D5
:104B2000E0BCBA46B146A846F0BDC04610B582B05A
:104B3000049C0094FFF7A0FF02B010BD10B5FFF772
:104B40002FFFC04380B210BDF0B5C646040000B5CB
:104B500000282AD0FF2300260027012598466189D6
:104B60006068FFF71DFFC019030C0004070CDF1974
:104B700063891D4207D042463B06380A1B0C104091
:104B800003431F006E402468002CE8D1002E09D09A
:104B90003B0638041B0C000E1843C04380B280BC97
:104BA000B846F0BDF84380B2F9E70148F7E7C046E0
:104BB000FFFF000003220A4B002103339343094AFD
:104BC00009481360FA221201197199180160012035
:104BD0001A60087105499950054A13607047C0462C
:104BE000A8E50020A0E50020A4E50020A00FA00F6C
:104BF000044C0020F0B5D6464F464646C0B50028C6
:104C00005DD0830700D069E00300394A083B126891
:104C10009A4260D837490C30096881425BD31879D1
:104C2000002861D0FA201D88000185420CD85C88DC
:104C3000A246844208D8981A80B280461619A0422B
:104C400005D03088404502D02B4811F0B7FD5019EF
:104C5000814202D044884445F6D100241C71274C7F
:104C6000A44624689C4202D9644623601C009942F1
:104C700037D9834213D00779002F10D181420ED04B
:104C8000A04224D005881D800188FA2000018142BD
:104C900005D040465118488059888A465618B34274
:104CA0000DD0317900290AD1A3420DD0FA213580E7
:104CB0001B8809018B4202D0D31852465A80E0BCAF
:104CC000BA46B146A846F0BD61460E60EEE76146C1
:104CD0001C000B60D6E70A4811F070FD094811F07E
:104CE0006DFD094811F06AFD084811F067FDC046E6
:104CF000A0E50020A4E5002050190310044C00207A
:104D00000C190310E8180310841903102819031054
:104D1000F0B5C6463B4BCA1C00B513400B2B3FD920
:104D2000FA22120193423ED899423CD8364A14687E
:104D300084425ED8354A126882425AD90500083D3D
:104D4000291B8AB290462E8841463200083A521AF0
:104D500092B29A4250D320D0A7193979002924D190
:104D6000FA22120196424AD03A88294E9446424687
:104D700008329B1832689BB2BA4237D0E2186146BB
:104D80001180414600265180FA2116712B8012882D
:104D900009018A4201D0A218538080BCB846F0BDF8
:104DA0000C239942C2D90020F7E71F001437BFB285
:104DB000BA42F2D3424608329B18FA229BB2120141
:104DC00096421CD0124FE2183968914200D93A60DD
:104DD000414600275180FA21177116802B801288D6
:104DE00009018A42D9D0A4186380D6E7E21832605C
:104DF000C5E7084811F0E2FC074811F0DFFC07485E
:104E000011F0DCFCFCFF0000A0E50020A4E5002080
:104E1000044C0020A0190310B8190310D81903106E
:104E2000F0B5D6464F464646C0B500282FD03D4C7B
:104E3000C31C1C400B2C30D9FA231B019C4226D8E2
:104E4000A04224D8384BFA229C461B6812019A468D
:104E5000364B121B1E6853469B1B98B21B04904690
:104E60001B0C9A4213D908277F4208E01588FB1AC9
:104E70005B19A34213D22B002800434507D2F21836
:104E800011790029F2D0108803004345F7D30020A0
:104E9000E0BCBA46B146A846F0BD0C24D0E71427C2
:104EA000B846A0444746BFB2BB421CD201230834D7
:104EB0001371A4B21E4B1868130092450ED0A418AB
:104EC000A0422CD3100008309307E1D0194811F00C
:104ED00075FC1B88F318197900291AD09842F8D16B
:104EE00063461860EBE7FA270834A4B203193F01C0
:104EF0009BB2B946BB420FD0F718397101213D80F2
:104F000078801380117139884945D3D071184B804E
:104F1000D0E761460B60D2E7074811F04FFC074825
:104F200011F04CFCFCFF0000044C0020A0E5002028
:104F3000A4E500201C1A0310D8190310EC19031063
:104F400024230022F0B54746CE46904699460332C8
:104F50000425944680B5124F124B134CB944414678
:104F60003A682160614603338B43002D0BD01688CD
:104F70000021002200E00300013219609819190095
:104F80002360AA42F7DB0437B94504D03A68946835
:104F900053685588E3E7C0BCB946B046F0BDC0468B
:104FA000101B031040DD002068E5002010B5082824
:104FB00010D80B4B8000C458FDF73AF9A3681C6861
:104FC000002C03D022681A60A30705D1FDF732F93F
:104FD000200010BD0024FBE7024811F0EFFBC046A3
:104FE000101B0310601A031070B50C0008280ED8AF
:104FF00000290CD0084B8000C5588B0708D1FDF75D
:1050000017F9AB681A6822601C60FDF713F970BDD0
:10501000024811F0D3FBC046101B0310841A031082
:105020000C2040427047C04670B505000C001600C9
:1050300082B000292AD043680A689A4201D102B09E
:1050400070BD3360300001A9019202F001F9300017
:1050500001A905F061FE01A9300000F025FE392309
:1050600022686A60E95C343B0B40052B05D0EB6994
:10507000002BE4D028009847E1E7002AF7D00B077F
:10508000F5D52800291D09F0DBFEF0E7014811F0F5
:1050900095FBC046341B03107047C046F0B5C646AA
:1050A00000B504000E001700984682B000286AD0B0
:1050B000099B002B67D0002900D174E0002F00D19C
:1050C0006FE04346002B69D03F4B0025636100220F
:1050D000392320006560A560E56025860021E25443
:1050E0002830042213F0FAFA089BE56163623C233E
:1050F0002562364D2A78E2540A9B23613368002BDF
:105100003AD13100200001AAFFF78EFF0122A168E9
:10511000E0683B68994200D0A36043461B68984210
:1051200000D0E360002A33D02000099B9847002874
:1051300029D1274B3C2698461F683C23E05C00237E
:105140009C46FF2802D163460020A355002F2CD097
:10515000BC4236D03B00FF2207E01B68002B24D066
:105160009C422ED0013A002A0AD0995D8142F4D1A6
:105170000130C0B2A055E4E7002000210022C8E7BA
:10518000144811F01BFB002002B080BCB846F0BDF3
:105190003100200001AAFFF747FFC5E70E4B9846F4
:1051A00092E70D4F8DE70C4E88E7FE2807D00130BF
:1051B000C0B243462870276020001C60E4E700204E
:1051C000F7E7064811F0FAFA21500010EBF600203C
:1051D00088E50020581B03102C330310441B0310D8
:1051E000F0B504000D0016001F0083B000294ED05A
:1051F000002E4AD0002F46D02B680022002B0CD066
:105200003368A1688B4200D0A3603B68E1688B42A1
:1052100030D1002A31D003B0F0BD616801220029ED
:10522000EED06846009101A9019302F011F868469A
:1052300001A905F071FD01A9684600F035FD39238B
:105240002A686260E15C343B0B40052B07D1002AE1
:1052500005D00B0703D52000211D09F0F1FDE369FE
:10526000002B01D0200098473368A16801228B42AF
:10527000CBD0C9E7E360002ACDD16A4629002000DF
:10528000FFF7D2FEC7E7034FB6E7024EB2E7014D84
:10529000AEE7C0462C33031070B5041E16D0436829
:1052A000002B17D139220121A35C194224D11D4BB7
:1052B0001A68A2422ED01C4A1368A34204D126E0E9
:1052C0001A68A24203D01300002BF9D170BD2268E6
:1052D0001A60FBE7051D0021280001F0B9FF00213D
:1052E000280005F019FD0021280000F0DDFC39221E
:1052F0000121A35C1942DAD018008843A0541B078F
:105300000BD4E369002BD2D020009847CFE7236865
:105310001360DBE700221A60CDE7200009F0EEF908
:10532000EFE7C04684E5002088E50020014B1860C7
:105330007047C04684E5002070B5041E15D039259D
:10534000435DDA0711D401221343DBB24355C2692E
:10535000002A01D09047635D05221A40052A04D136
:105360006268002A01D01B0700D470BD2000211DF7
:1053700009F066FDF9E7C04670B5041E03D0392573
:10538000435D5A0700D570BD04221343435506F010
:1053900079FC0523625D1340052B05D0236A002BA1
:1053A000F1D020009847EEE76368002BF6D0130792
:1053B000F4D52000211D09F043FDEFE710B50028CA
:1053C0000AD039220421835C194205D08B438354CF
:1053D000036A002B00D0984710BDC046021E0ED0B5
:1053E000084B1868002809D03C2102E0006800281A
:1053F00004D0435C0133DBB29342F7D17047002005
:10540000FCE7C04688E50020F8B505000026002826
:1054100026D00F270BE0012B24D0002B2AD1280007
:10542000FFF7E8FB0136F6B2002C19D02500FCF797
:10543000FFFEAC7B002C1AD0013CE4B2AC73FCF74D
:10544000F9FE002C0CD12B7B2C683B40022BE2D1C7
:10545000290008200136FFF7C7FDF6B2002CE5D180
:105460003000F8BD29000720FFF7BEFDDAE703484A
:1054700011F0A4F9024811F0A1F9C046881B0310ED
:10548000A01B031010B5FCF7D3FE0022084B1A70C6
:10549000FCF7D0FE074B1868002803D107E0C0686E
:1054A000002804D0436F002BF9D001F01FFF10BD7E
:1054B000ECF6002094F60020F0B5C1234F46464696
:1054C000D6468046C0B50D00170084B25B009A42F4
:1054D0003FD008D81400433BFF3B9C43012C6AD0CB
:1054E0003C4811F06BF9A0239B009A42F8D1E31CD1
:1054F0000324CA1CA343A2439B189BB2180010307C
:1055000080B293421ED382421CD8FFF789FC061E4C
:1055100019D0002303604346C71813372E4B2904C4
:10552000A7430D4347608560C3600CE0FCF780FE35
:1055300001222A4B1A70FCF77DFE002E02D03000AB
:10554000FFF762FF00263000E0BCBA46B146A8462D
:10555000F0BD00239846224B00269A4600230327DD
:10556000994607E043466D1AADB21860002DEAD0A7
:10557000804600240820FFF719FD0028D6D05246A7
:10558000E31CBB43D31A1A1C9BB2AB4200D92A1CA2
:105590004B46041903601334124BBC4391B2446070
:1055A00005814281C360002EDCD16D1AADB20600C8
:1055B000002DDDD1C7E70720FFF7F8FC061EC2D09B
:1055C000002329040D430360436085600773437320
:1055D000C481B8E7B41B031080000100ECF6002082
:1055E000EC0500008200010070B5041E34D0028971
:1055F0008A421CD90D008A1A07E023896D1A9B186C
:1056000023812468ADB2002C20D06189A942F4D353
:10561000237B1B0701D1A9420AD129042068294311
:10562000A160002801D0FFF7EFFE0023236070BDCA
:1056300063682000191B691889B2FFF769FB00280D
:1056400007D08442E9D0064811F0B8F8054811F0B7
:10565000B5F8054811F0B2F8044811F0AFF8C046AB
:105660001C1C0310E81B0310001C0310D01B0310AC
:10567000030070B5002820D08022520291421AD235
:10568000002916D002898CB2A21892B2944212D884
:10569000057B01207F2D0DD95D68691A1D0010352D
:1056A000A94207D359605989002064185C811A8186
:1056B00000E0002070BD0120FCE7014811F07EF8F9
:1056C000381C031010B5002818D080235B029942C3
:1056D00012D200290ED043898AB29A420CD844686B
:1056E0009B1AA4464381038961449A1A416002814E
:1056F000002010BD0020FCE70120FAE7014811F06E
:105700005DF8C046381C031010B5002915DB0028D1
:105710002FD0002923D003898AB2D3189BB29A4292
:1057200025D8047B7F2C1CD84468611A41604189CC
:10573000038152184281002010BD002819D049422F
:1057400043898AB29A4212D844689B1AA44643817C
:10575000038961449A1A416002810020ECE700202D
:10576000EAE74468611A04001034A142DED2012045
:10577000E2E7014811F022F8381C031010B50028A8
:1057800002D0FFF741FE10BD014811F017F8C046E6
:10579000381C031003000020002B04D01B680130CC
:1057A00080B2002BFAD1704710B5041E09D0FCF767
:1057B0003FFDA37B0133A373FCF73CFDA37B002BD0
:1057C00000D010BD014810F0F9FFC046441C031082
:1057D00010B5002814D0002912D00368002B07D080
:1057E00002890C891219028118001B68002BF7D15D
:1057F00002894389934204D10A8901609B1803817D
:1058000010BD014810F0DAFF581C031010B50C0051
:1058100000281FD000291CD00368002B07D0028964
:1058200021895218028118001B68002BF7D10289C8
:105830004389934214D1228904609B180381FCF7A9
:10584000F7FCA37B0133A373FCF7F4FCA37B002BD1
:1058500003D010BD0029FCD0F1E7034810F0AEFFE3
:10586000024810F0ABFFC046441C0310581C031044
:10587000F0B54F46D64646468146C0B58846924664
:105880001F00002900D184E00B89934200D280E000
:10589000002800D17DE053460289FB189A4200DAC5
:1058A00077E0002644890CE043465A891B899A42D6
:1058B0003DD04B465C891B899C424DD05346002B02
:1058C00057D043465B89E41B9B1B9C4200D91C00BC
:1058D0005546A24500D925004B465B682A00D819D9
:1058E00043465B687F19991912F0FEFE53467619FC
:1058F0005D1BABB29A464B465C89BC424CD34346D7
:105900005B89B3424BD305D143461B6800269846BA
:10591000002B17D0BC42C7D14B461B689946002BC1
:105920001FD043465A891B8900279A42C1D143465A
:105930001B68002BBDD006204042E0BCBA46B146F1
:10594000A846F0BD5346002B23D1BC4219D04B468C
:105950001B899C420DD100264B461B68002BADD005
:10596000E9E75346002B14D143461A895B899A42D2
:1059700001D00020E1E743461B68002BDBD100206B
:10598000DBE74B461B689946002BF2D000275C8969
:10599000DDE710204042D0E7024810F00FFF024838
:1059A00010F00CFF881C0310A01C031010B5002978
:1059B00004D000230A89FFF75BFF10BD102040428E
:1059C000FBE7C046F0B5C64605008846160019003C
:1059D000002700B5002828D04346002B25D0002AF8
:1059E00005D122E02D68091B89B2002D1DD06C89DC
:1059F000002901D0A142F5D2641AA4B2321CA642F9
:105A000000D9221C4346D8196B6894B29C46361BB9
:105A100022006144E719B6B212F066FEBFB22D68EB
:105A2000002E02D00021002DE1D1380080BCB84604
:105A3000F0BDC046F8B5CE464746050088469146BB
:105A400080B5002824D0002922D0038993421CD39A
:105A500016000027002A02D112E0002D1BD06C890D
:105A6000B44200D9340043466868D919220012F0C4
:105A70003BFE361B2D683F19002EEED1B9450DD1E6
:105A80000020C0BCB946B046F8BD01204042F8E74E
:105A900010204042F5E7034810F090FE024810F055
:105AA0008DFEC046BC1C0310D41C0310F0B5D646B6
:105AB0004F46464604008A46C0B5002805D13AE064
:105AC00024685B1B9BB2002C35D065899D42F7D9B9
:105AD00021899F18B9422EDBE91A8A4232DD8AB247
